{
  "_format": "hh-sol-artifact-1",
  "contractName": "WavePortal",
  "sourceName": "contracts/WavePortal.sol",
  "abi": [
    {
      "inputs": [],
      "stateMutability": "payable",
      "type": "constructor"
    },
    {
      "anonymous": false,
      "inputs": [
        {
          "indexed": true,
          "internalType": "address",
          "name": "from",
          "type": "address"
        },
        {
          "indexed": false,
          "internalType": "uint256",
          "name": "timestamp",
          "type": "uint256"
        },
        {
          "indexed": false,
          "internalType": "string",
          "name": "message",
          "type": "string"
        }
      ],
      "name": "NewWave",
      "type": "event"
    },
    {
      "inputs": [
        {
          "internalType": "string",
          "name": "_message",
          "type": "string"
        }
      ],
      "name": "askForArt",
      "outputs": [],
      "stateMutability": "nonpayable",
      "type": "function"
    },
    {
      "inputs": [],
      "name": "getArtRequests",
      "outputs": [
        {
          "components": [
            {
              "internalType": "address",
              "name": "waver",
              "type": "address"
            },
            {
              "internalType": "string",
              "name": "message",
              "type": "string"
            },
            {
              "internalType": "uint256",
              "name": "timestamp",
              "type": "uint256"
            }
          ],
          "internalType": "struct WavePortal.Wave[]",
          "name": "",
          "type": "tuple[]"
        }
      ],
      "stateMutability": "view",
      "type": "function"
    },
    {
      "inputs": [],
      "name": "getTotalArtRequests",
      "outputs": [
        {
          "internalType": "uint256",
          "name": "",
          "type": "uint256"
        }
      ],
      "stateMutability": "view",
      "type": "function"
    }
  ],
  "bytecode": "0x6080604052620000336040518060600160405280602b815260200162001039602b91396200003960201b620004731760201c565b620001cd565b620000d98160405160240162000050919062000146565b6040516020818303038152906040527f41304fac000000000000000000000000000000000000000000000000000000007bffffffffffffffffffffffffffffffffffffffffffffffffffffffff19166020820180517bffffffffffffffffffffffffffffffffffffffffffffffffffffffff8381831617835250505050620000dc60201b60201c565b50565b60008151905060006a636f6e736f6c652e6c6f679050602083016000808483855afa5050505050565b600062000112826200016a565b6200011e818562000175565b93506200013081856020860162000186565b6200013b81620001bc565b840191505092915050565b6000602082019050818103600083015262000162818462000105565b905092915050565b600081519050919050565b600082825260208201905092915050565b60005b83811015620001a657808201518184015260208101905062000189565b83811115620001b6576000848401525b50505050565b6000601f19601f8301169050919050565b610e5c80620001dd6000396000f3fe608060405234801561001057600080fd5b50600436106100415760003560e01c80630b658b7114610046578063752c195c14610064578063e47e712c14610082575b600080fd5b61004e61009e565b60405161005b9190610b1f565b60405180910390f35b61006c6100cc565b6040516100799190610a3b565b60405180910390f35b61009c60048036038101906100979190610778565b61021d565b005b60006100c4604051806060016040528060238152602001610de16023913960005461050c565b600054905090565b60606001805480602002602001604051908101604052809291908181526020016000905b8282101561021457838290600052602060002090600302016040518060600160405290816000820160009054906101000a900473ffffffffffffffffffffffffffffffffffffffff1673ffffffffffffffffffffffffffffffffffffffff1673ffffffffffffffffffffffffffffffffffffffff16815260200160018201805461017990610d10565b80601f01602080910402602001604051908101604052809291908181526020018280546101a590610d10565b80156101f25780601f106101c7576101008083540402835291602001916101f2565b820191906000526020600020905b8154815290600101906020018083116101d557829003601f168201915b50505050508152602001600282015481525050815260200190600101906100f0565b50505050905090565b600160008082825461022f9190610c3c565b92505081905550610258604051806060016040528060238152602001610e0460239139336105a8565b600160405180606001604052803373ffffffffffffffffffffffffffffffffffffffff16815260200183815260200142815250908060018154018082558091505060019003906000526020600020906003020160009091909190915060008201518160000160006101000a81548173ffffffffffffffffffffffffffffffffffffffff021916908373ffffffffffffffffffffffffffffffffffffffff160217905550602082015181600101908051906020019061031792919061066d565b506040820151816002015550503373ffffffffffffffffffffffffffffffffffffffff167f5f7e16dc676677766a70e9c5628aa6c54ddb8b6e5188e2ae1e1f17f1ffbea716428360405161036c929190610b3a565b60405180910390a26000655af3107a40009050478111156103c2576040517f08c379a00000000000000000000000000000000000000000000000000000000081526004016103b990610adf565b60405180910390fd5b60003373ffffffffffffffffffffffffffffffffffffffff16826040516103e890610a26565b60006040518083038185875af1925050503d8060008114610425576040519150601f19603f3d011682016040523d82523d6000602084013e61042a565b606091505b505090508061046e576040517f08c379a000000000000000000000000000000000000000000000000000000000815260040161046590610aff565b60405180910390fd5b505050565b610509816040516024016104879190610a5d565b6040516020818303038152906040527f41304fac000000000000000000000000000000000000000000000000000000007bffffffffffffffffffffffffffffffffffffffffffffffffffffffff19166020820180517bffffffffffffffffffffffffffffffffffffffffffffffffffffffff8381831617835250505050610644565b50565b6105a48282604051602401610522929190610aaf565b6040516020818303038152906040527f9710a9d0000000000000000000000000000000000000000000000000000000007bffffffffffffffffffffffffffffffffffffffffffffffffffffffff19166020820180517bffffffffffffffffffffffffffffffffffffffffffffffffffffffff8381831617835250505050610644565b5050565b61064082826040516024016105be929190610a7f565b6040516020818303038152906040527f319af333000000000000000000000000000000000000000000000000000000007bffffffffffffffffffffffffffffffffffffffffffffffffffffffff19166020820180517bffffffffffffffffffffffffffffffffffffffffffffffffffffffff8381831617835250505050610644565b5050565b60008151905060006a636f6e736f6c652e6c6f679050602083016000808483855afa5050505050565b82805461067990610d10565b90600052602060002090601f01602090048101928261069b57600085556106e2565b82601f106106b457805160ff19168380011785556106e2565b828001600101855582156106e2579182015b828111156106e15782518255916020019190600101906106c6565b5b5090506106ef91906106f3565b5090565b5b8082111561070c5760008160009055506001016106f4565b5090565b600061072361071e84610b9b565b610b6a565b90508281526020810184848401111561073b57600080fd5b610746848285610cce565b509392505050565b600082601f83011261075f57600080fd5b813561076f848260208601610710565b91505092915050565b60006020828403121561078a57600080fd5b600082013567ffffffffffffffff8111156107a457600080fd5b6107b08482850161074e565b91505092915050565b60006107c583836109b8565b905092915050565b6107d681610c92565b82525050565b6107e581610c92565b82525050565b60006107f682610bdb565b6108008185610bfe565b93508360208202850161081285610bcb565b8060005b8581101561084e578484038952815161082f85826107b9565b945061083a83610bf1565b925060208a01995050600181019050610816565b50829750879550505050505092915050565b600061086b82610be6565b6108758185610c1a565b9350610885818560208601610cdd565b61088e81610dcf565b840191505092915050565b60006108a482610be6565b6108ae8185610c2b565b93506108be818560208601610cdd565b6108c781610dcf565b840191505092915050565b60006108df603483610c2b565b91507f547279696e6720746f207769746864726177206d6f7265206d6f6e657920746860008301527f616e2074686520636f6e7472616374206861732e0000000000000000000000006020830152604082019050919050565b6000610945602783610c2b565b91507f4661696c656420746f207769746864726177206d6f6e65792066726f6d20636f60008301527f6e74726163742e000000000000000000000000000000000000000000000000006020830152604082019050919050565b60006109ab600083610c0f565b9150600082019050919050565b60006060830160008301516109d060008601826107cd565b50602083015184820360208601526109e88282610860565b91505060408301516109fd6040860182610a08565b508091505092915050565b610a1181610cc4565b82525050565b610a2081610cc4565b82525050565b6000610a318261099e565b9150819050919050565b60006020820190508181036000830152610a5581846107eb565b905092915050565b60006020820190508181036000830152610a778184610899565b905092915050565b60006040820190508181036000830152610a998185610899565b9050610aa860208301846107dc565b9392505050565b60006040820190508181036000830152610ac98185610899565b9050610ad86020830184610a17565b9392505050565b60006020820190508181036000830152610af8816108d2565b9050919050565b60006020820190508181036000830152610b1881610938565b9050919050565b6000602082019050610b346000830184610a17565b92915050565b6000604082019050610b4f6000830185610a17565b8181036020830152610b618184610899565b90509392505050565b6000604051905081810181811067ffffffffffffffff82111715610b9157610b90610da0565b5b8060405250919050565b600067ffffffffffffffff821115610bb657610bb5610da0565b5b601f19601f8301169050602081019050919050565b6000819050602082019050919050565b600081519050919050565b600081519050919050565b6000602082019050919050565b600082825260208201905092915050565b600081905092915050565b600082825260208201905092915050565b600082825260208201905092915050565b6000610c4782610cc4565b9150610c5283610cc4565b9250827fffffffffffffffffffffffffffffffffffffffffffffffffffffffffffffffff03821115610c8757610c86610d42565b5b828201905092915050565b6000610c9d82610ca4565b9050919050565b600073ffffffffffffffffffffffffffffffffffffffff82169050919050565b6000819050919050565b82818337600083830152505050565b60005b83811015610cfb578082015181840152602081019050610ce0565b83811115610d0a576000848401525b50505050565b60006002820490506001821680610d2857607f821691505b60208210811415610d3c57610d3b610d71565b5b50919050565b7f4e487b7100000000000000000000000000000000000000000000000000000000600052601160045260246000fd5b7f4e487b7100000000000000000000000000000000000000000000000000000000600052602260045260246000fd5b7f4e487b7100000000000000000000000000000000000000000000000000000000600052604160045260246000fd5b6000601f19601f830116905091905056fe5765206861766520256420746f74616c206172742072657175657374732120f09f8ea825732072657175657374656420746f207669657720736f6d65206172742120f09f8ea8a2646970667358221220351c8ff42a88c60ad036244f5400120690351196a8e6c9609850fe1935e5122c64736f6c634300080000335468697320636f6e747261637420697320646f706520616e642068617320736f6d65206e6575726f6e7321",
  "linkReferences": {},
  "deployedLinkReferences": {}
}