{
  "_format": "hh-sol-artifact-1",
  "contractName": "WavePortal",
  "sourceName": "contracts/WavePortal.sol",
  "abi": [
    {
      "inputs": [],
      "stateMutability": "payable",
      "type": "constructor"
    },
    {
      "anonymous": false,
      "inputs": [
        {
          "indexed": true,
          "internalType": "address",
          "name": "from",
          "type": "address"
        },
        {
          "indexed": false,
          "internalType": "uint256",
          "name": "timestamp",
          "type": "uint256"
        },
        {
          "indexed": false,
          "internalType": "string",
          "name": "message",
          "type": "string"
        },
        {
          "indexed": false,
          "internalType": "string",
          "name": "imageUrl",
          "type": "string"
        }
      ],
      "name": "NewWave",
      "type": "event"
    },
    {
      "inputs": [
        {
          "internalType": "string",
          "name": "_message",
          "type": "string"
        },
        {
          "internalType": "string",
          "name": "_imageUrl",
          "type": "string"
        }
      ],
      "name": "askForArt",
      "outputs": [],
      "stateMutability": "nonpayable",
      "type": "function"
    },
    {
      "inputs": [],
      "name": "getArtRequests",
      "outputs": [
        {
          "components": [
            {
              "internalType": "address",
              "name": "waver",
              "type": "address"
            },
            {
              "internalType": "string",
              "name": "message",
              "type": "string"
            },
            {
              "internalType": "uint256",
              "name": "timestamp",
              "type": "uint256"
            },
            {
              "internalType": "string",
              "name": "imageUrl",
              "type": "string"
            }
          ],
          "internalType": "struct WavePortal.Wave[]",
          "name": "",
          "type": "tuple[]"
        }
      ],
      "stateMutability": "view",
      "type": "function"
    },
    {
      "inputs": [],
      "name": "getTotalArtRequests",
      "outputs": [
        {
          "internalType": "uint256",
          "name": "",
          "type": "uint256"
        }
      ],
      "stateMutability": "view",
      "type": "function"
    },
    {
      "inputs": [
        {
          "internalType": "address",
          "name": "",
          "type": "address"
        }
      ],
      "name": "lastWavedAt",
      "outputs": [
        {
          "internalType": "uint256",
          "name": "",
          "type": "uint256"
        }
      ],
      "stateMutability": "view",
      "type": "function"
    }
  ],
  "bytecode": "0x6080604052620000336040518060600160405280602b81526020016200143e602b91396200003960201b620007091760201c565b620001cd565b620000d98160405160240162000050919062000146565b6040516020818303038152906040527f41304fac000000000000000000000000000000000000000000000000000000007bffffffffffffffffffffffffffffffffffffffffffffffffffffffff19166020820180517bffffffffffffffffffffffffffffffffffffffffffffffffffffffff8381831617835250505050620000dc60201b60201c565b50565b60008151905060006a636f6e736f6c652e6c6f679050602083016000808483855afa5050505050565b600062000112826200016a565b6200011e818562000175565b93506200013081856020860162000186565b6200013b81620001bc565b840191505092915050565b6000602082019050818103600083015262000162818462000105565b905092915050565b600081519050919050565b600082825260208201905092915050565b60005b83811015620001a657808201518184015260208101905062000189565b83811115620001b6576000848401525b50505050565b6000601f19601f8301169050919050565b61126180620001dd6000396000f3fe608060405234801561001057600080fd5b506004361061004c5760003560e01c80630b658b71146100515780633e59d0221461006f578063752c195c1461008b578063a42a4663146100a9575b600080fd5b6100596100d9565b6040516100669190610e98565b60405180910390f35b61008960048036038101906100849190610a4c565b610107565b005b61009361050e565b6040516100a09190610d94565b60405180910390f35b6100c360048036038101906100be9190610a23565b6106f1565b6040516100d09190610e98565b60405180910390f35b60006100ff6040518060600160405280602381526020016111e6602391396000546107a2565b600054905090565b42610384600360003373ffffffffffffffffffffffffffffffffffffffff1673ffffffffffffffffffffffffffffffffffffffff168152602001908152602001600020546101559190610fca565b10610195576040517f08c379a000000000000000000000000000000000000000000000000000000000815260040161018c90610e78565b60405180910390fd5b42600360003373ffffffffffffffffffffffffffffffffffffffff1673ffffffffffffffffffffffffffffffffffffffff1681526020019081526020016000208190555060016000808282546101eb9190610fca565b92505081905550610214604051806060016040528060238152602001611209602391393361083e565b600260405180608001604052803373ffffffffffffffffffffffffffffffffffffffff16815260200184815260200142815260200183815250908060018154018082558091505060019003906000526020600020906004020160009091909190915060008201518160000160006101000a81548173ffffffffffffffffffffffffffffffffffffffff021916908373ffffffffffffffffffffffffffffffffffffffff16021790555060208201518160010190805190602001906102d9929190610903565b50604082015181600201556060820151816003019080519060200190610300929190610903565b5050506000606460015442446103169190610fca565b6103209190610fca565b61032a91906110d0565b905061036b6040518060400160405280601681526020017f52616e646f6d20232067656e6572617465643a20257300000000000000000000815250826107a2565b8060018190555060328110156104b7576103ba6040518060400160405280600781526020017f257320776f6e21000000000000000000000000000000000000000000000000008152503361083e565b6000655af3107a4000905047811115610408576040517f08c379a00000000000000000000000000000000000000000000000000000000081526004016103ff90610e38565b60405180910390fd5b60003373ffffffffffffffffffffffffffffffffffffffff168260405161042e90610d7f565b60006040518083038185875af1925050503d806000811461046b576040519150601f19603f3d011682016040523d82523d6000602084013e610470565b606091505b50509050806104b4576040517f08c379a00000000000000000000000000000000000000000000000000000000081526004016104ab90610e58565b60405180910390fd5b50505b3373ffffffffffffffffffffffffffffffffffffffff167f0646f10b0148fe8db9a43af10b6956b53e1478c47afc7132c17e243449dfd33942858560405161050193929190610eb3565b60405180910390a2505050565b60606002805480602002602001604051908101604052809291908181526020016000905b828210156106e857838290600052602060002090600402016040518060800160405290816000820160009054906101000a900473ffffffffffffffffffffffffffffffffffffffff1673ffffffffffffffffffffffffffffffffffffffff1673ffffffffffffffffffffffffffffffffffffffff1681526020016001820180546105bb9061109e565b80601f01602080910402602001604051908101604052809291908181526020018280546105e79061109e565b80156106345780601f1061060957610100808354040283529160200191610634565b820191906000526020600020905b81548152906001019060200180831161061757829003601f168201915b50505050508152602001600282015481526020016003820180546106579061109e565b80601f01602080910402602001604051908101604052809291908181526020018280546106839061109e565b80156106d05780601f106106a5576101008083540402835291602001916106d0565b820191906000526020600020905b8154815290600101906020018083116106b357829003601f168201915b50505050508152505081526020019060010190610532565b50505050905090565b60036020528060005260406000206000915090505481565b61079f8160405160240161071d9190610db6565b6040516020818303038152906040527f41304fac000000000000000000000000000000000000000000000000000000007bffffffffffffffffffffffffffffffffffffffffffffffffffffffff19166020820180517bffffffffffffffffffffffffffffffffffffffffffffffffffffffff83818316178352505050506108da565b50565b61083a82826040516024016107b8929190610e08565b6040516020818303038152906040527f9710a9d0000000000000000000000000000000000000000000000000000000007bffffffffffffffffffffffffffffffffffffffffffffffffffffffff19166020820180517bffffffffffffffffffffffffffffffffffffffffffffffffffffffff83818316178352505050506108da565b5050565b6108d68282604051602401610854929190610dd8565b6040516020818303038152906040527f319af333000000000000000000000000000000000000000000000000000000007bffffffffffffffffffffffffffffffffffffffffffffffffffffffff19166020820180517bffffffffffffffffffffffffffffffffffffffffffffffffffffffff83818316178352505050506108da565b5050565b60008151905060006a636f6e736f6c652e6c6f679050602083016000808483855afa5050505050565b82805461090f9061109e565b90600052602060002090601f0160209004810192826109315760008555610978565b82601f1061094a57805160ff1916838001178555610978565b82800160010185558215610978579182015b8281111561097757825182559160200191906001019061095c565b5b5090506109859190610989565b5090565b5b808211156109a257600081600090555060010161098a565b5090565b60006109b96109b484610f29565b610ef8565b9050828152602081018484840111156109d157600080fd5b6109dc84828561105c565b509392505050565b6000813590506109f3816111ce565b92915050565b600082601f830112610a0a57600080fd5b8135610a1a8482602086016109a6565b91505092915050565b600060208284031215610a3557600080fd5b6000610a43848285016109e4565b91505092915050565b60008060408385031215610a5f57600080fd5b600083013567ffffffffffffffff811115610a7957600080fd5b610a85858286016109f9565b925050602083013567ffffffffffffffff811115610aa257600080fd5b610aae858286016109f9565b9150509250929050565b6000610ac48383610cf7565b905092915050565b610ad581611020565b82525050565b610ae481611020565b82525050565b6000610af582610f69565b610aff8185610f8c565b935083602082028501610b1185610f59565b8060005b85811015610b4d5784840389528151610b2e8582610ab8565b9450610b3983610f7f565b925060208a01995050600181019050610b15565b50829750879550505050505092915050565b6000610b6a82610f74565b610b748185610fa8565b9350610b8481856020860161106b565b610b8d816111bd565b840191505092915050565b6000610ba382610f74565b610bad8185610fb9565b9350610bbd81856020860161106b565b610bc6816111bd565b840191505092915050565b6000610bde603483610fb9565b91507f547279696e6720746f207769746864726177206d6f7265206d6f6e657920746860008301527f616e2074686520636f6e7472616374206861732e0000000000000000000000006020830152604082019050919050565b6000610c44602783610fb9565b91507f4661696c656420746f207769746864726177206d6f6e65792066726f6d20636f60008301527f6e74726163742e000000000000000000000000000000000000000000000000006020830152604082019050919050565b6000610caa600083610f9d565b9150600082019050919050565b6000610cc4600883610fb9565b91507f576169742031356d0000000000000000000000000000000000000000000000006000830152602082019050919050565b6000608083016000830151610d0f6000860182610acc565b5060208301518482036020860152610d278282610b5f565b9150506040830151610d3c6040860182610d61565b5060608301518482036060860152610d548282610b5f565b9150508091505092915050565b610d6a81611052565b82525050565b610d7981611052565b82525050565b6000610d8a82610c9d565b9150819050919050565b60006020820190508181036000830152610dae8184610aea565b905092915050565b60006020820190508181036000830152610dd08184610b98565b905092915050565b60006040820190508181036000830152610df28185610b98565b9050610e016020830184610adb565b9392505050565b60006040820190508181036000830152610e228185610b98565b9050610e316020830184610d70565b9392505050565b60006020820190508181036000830152610e5181610bd1565b9050919050565b60006020820190508181036000830152610e7181610c37565b9050919050565b60006020820190508181036000830152610e9181610cb7565b9050919050565b6000602082019050610ead6000830184610d70565b92915050565b6000606082019050610ec86000830186610d70565b8181036020830152610eda8185610b98565b90508181036040830152610eee8184610b98565b9050949350505050565b6000604051905081810181811067ffffffffffffffff82111715610f1f57610f1e61118e565b5b8060405250919050565b600067ffffffffffffffff821115610f4457610f4361118e565b5b601f19601f8301169050602081019050919050565b6000819050602082019050919050565b600081519050919050565b600081519050919050565b6000602082019050919050565b600082825260208201905092915050565b600081905092915050565b600082825260208201905092915050565b600082825260208201905092915050565b6000610fd582611052565b9150610fe083611052565b9250827fffffffffffffffffffffffffffffffffffffffffffffffffffffffffffffffff0382111561101557611014611101565b5b828201905092915050565b600061102b82611032565b9050919050565b600073ffffffffffffffffffffffffffffffffffffffff82169050919050565b6000819050919050565b82818337600083830152505050565b60005b8381101561108957808201518184015260208101905061106e565b83811115611098576000848401525b50505050565b600060028204905060018216806110b657607f821691505b602082108114156110ca576110c961115f565b5b50919050565b60006110db82611052565b91506110e683611052565b9250826110f6576110f5611130565b5b828206905092915050565b7f4e487b7100000000000000000000000000000000000000000000000000000000600052601160045260246000fd5b7f4e487b7100000000000000000000000000000000000000000000000000000000600052601260045260246000fd5b7f4e487b7100000000000000000000000000000000000000000000000000000000600052602260045260246000fd5b7f4e487b7100000000000000000000000000000000000000000000000000000000600052604160045260246000fd5b6000601f19601f8301169050919050565b6111d781611020565b81146111e257600080fd5b5056fe5765206861766520256420746f74616c206172742072657175657374732120f09f8ea825732072657175657374656420746f207669657720736f6d65206172742120f09f8ea8a26469706673582212207d885f424ca286725a4c2cf30cf64aa8029dcce7ab0d7096d50c93d1c26e945064736f6c634300080000335468697320636f6e747261637420697320646f706520616e642068617320736f6d65206e6575726f6e7321",
  "linkReferences": {},
  "deployedLinkReferences": {}
}