{
  "_format": "hh-sol-artifact-1",
  "contractName": "WavePortal",
  "sourceName": "contracts/WavePortal.sol",
  "abi": [
    {
      "inputs": [],
      "stateMutability": "nonpayable",
      "type": "constructor"
    },
    {
      "anonymous": false,
      "inputs": [
        {
          "indexed": true,
          "internalType": "address",
          "name": "from",
          "type": "address"
        },
        {
          "indexed": false,
          "internalType": "uint256",
          "name": "timestamp",
          "type": "uint256"
        },
        {
          "indexed": false,
          "internalType": "string",
          "name": "message",
          "type": "string"
        }
      ],
      "name": "NewWave",
      "type": "event"
    },
    {
      "inputs": [
        {
          "internalType": "string",
          "name": "_message",
          "type": "string"
        }
      ],
      "name": "askForArt",
      "outputs": [],
      "stateMutability": "nonpayable",
      "type": "function"
    },
    {
      "inputs": [],
      "name": "getArtRequests",
      "outputs": [
        {
          "components": [
            {
              "internalType": "address",
              "name": "waver",
              "type": "address"
            },
            {
              "internalType": "string",
              "name": "message",
              "type": "string"
            },
            {
              "internalType": "uint256",
              "name": "timestamp",
              "type": "uint256"
            }
          ],
          "internalType": "struct WavePortal.Wave[]",
          "name": "",
          "type": "tuple[]"
        }
      ],
      "stateMutability": "view",
      "type": "function"
    },
    {
      "inputs": [],
      "name": "getTotalArtRequests",
      "outputs": [
        {
          "internalType": "uint256",
          "name": "",
          "type": "uint256"
        }
      ],
      "stateMutability": "view",
      "type": "function"
    }
  ],
  "bytecode": "0x60806040523480156200001157600080fd5b50620000416040518060600160405280602b815260200162000e05602b91396200004760201b620003771760201c565b620001db565b620000e7816040516024016200005e919062000154565b6040516020818303038152906040527f41304fac000000000000000000000000000000000000000000000000000000007bffffffffffffffffffffffffffffffffffffffffffffffffffffffff19166020820180517bffffffffffffffffffffffffffffffffffffffffffffffffffffffff8381831617835250505050620000ea60201b60201c565b50565b60008151905060006a636f6e736f6c652e6c6f679050602083016000808483855afa5050505050565b6000620001208262000178565b6200012c818562000183565b93506200013e81856020860162000194565b6200014981620001ca565b840191505092915050565b6000602082019050818103600083015262000170818462000113565b905092915050565b600081519050919050565b600082825260208201905092915050565b60005b83811015620001b457808201518184015260208101905062000197565b83811115620001c4576000848401525b50505050565b6000601f19601f8301169050919050565b610c1a80620001eb6000396000f3fe608060405234801561001057600080fd5b50600436106100415760003560e01c80630b658b7114610046578063752c195c14610064578063e47e712c14610082575b600080fd5b61004e61009e565b60405161005b91906108e8565b60405180910390f35b61006c6100cc565b6040516100799190610844565b60405180910390f35b61009c6004803603810190610097919061067c565b61021d565b005b60006100c4604051806060016040528060238152602001610b9f60239139600054610410565b600054905090565b60606001805480602002602001604051908101604052809291908181526020016000905b8282101561021457838290600052602060002090600302016040518060600160405290816000820160009054906101000a900473ffffffffffffffffffffffffffffffffffffffff1673ffffffffffffffffffffffffffffffffffffffff1673ffffffffffffffffffffffffffffffffffffffff16815260200160018201805461017990610ace565b80601f01602080910402602001604051908101604052809291908181526020018280546101a590610ace565b80156101f25780601f106101c7576101008083540402835291602001916101f2565b820191906000526020600020905b8154815290600101906020018083116101d557829003601f168201915b50505050508152602001600282015481525050815260200190600101906100f0565b50505050905090565b600160008082825461022f91906109fa565b92505081905550610258604051806060016040528060238152602001610bc260239139336104ac565b600160405180606001604052803373ffffffffffffffffffffffffffffffffffffffff16815260200183815260200142815250908060018154018082558091505060019003906000526020600020906003020160009091909190915060008201518160000160006101000a81548173ffffffffffffffffffffffffffffffffffffffff021916908373ffffffffffffffffffffffffffffffffffffffff1602179055506020820151816001019080519060200190610317929190610571565b506040820151816002015550503373ffffffffffffffffffffffffffffffffffffffff167f5f7e16dc676677766a70e9c5628aa6c54ddb8b6e5188e2ae1e1f17f1ffbea716428360405161036c929190610903565b60405180910390a250565b61040d8160405160240161038b9190610866565b6040516020818303038152906040527f41304fac000000000000000000000000000000000000000000000000000000007bffffffffffffffffffffffffffffffffffffffffffffffffffffffff19166020820180517bffffffffffffffffffffffffffffffffffffffffffffffffffffffff8381831617835250505050610548565b50565b6104a882826040516024016104269291906108b8565b6040516020818303038152906040527f9710a9d0000000000000000000000000000000000000000000000000000000007bffffffffffffffffffffffffffffffffffffffffffffffffffffffff19166020820180517bffffffffffffffffffffffffffffffffffffffffffffffffffffffff8381831617835250505050610548565b5050565b61054482826040516024016104c2929190610888565b6040516020818303038152906040527f319af333000000000000000000000000000000000000000000000000000000007bffffffffffffffffffffffffffffffffffffffffffffffffffffffff19166020820180517bffffffffffffffffffffffffffffffffffffffffffffffffffffffff8381831617835250505050610548565b5050565b60008151905060006a636f6e736f6c652e6c6f679050602083016000808483855afa5050505050565b82805461057d90610ace565b90600052602060002090601f01602090048101928261059f57600085556105e6565b82601f106105b857805160ff19168380011785556105e6565b828001600101855582156105e6579182015b828111156105e55782518255916020019190600101906105ca565b5b5090506105f391906105f7565b5090565b5b808211156106105760008160009055506001016105f8565b5090565b600061062761062284610964565b610933565b90508281526020810184848401111561063f57600080fd5b61064a848285610a8c565b509392505050565b600082601f83011261066357600080fd5b8135610673848260208601610614565b91505092915050565b60006020828403121561068e57600080fd5b600082013567ffffffffffffffff8111156106a857600080fd5b6106b484828501610652565b91505092915050565b60006106c983836107d6565b905092915050565b6106da81610a50565b82525050565b6106e981610a50565b82525050565b60006106fa826109a4565b61070481856109c7565b93508360208202850161071685610994565b8060005b85811015610752578484038952815161073385826106bd565b945061073e836109ba565b925060208a0199505060018101905061071a565b50829750879550505050505092915050565b600061076f826109af565b61077981856109d8565b9350610789818560208601610a9b565b61079281610b8d565b840191505092915050565b60006107a8826109af565b6107b281856109e9565b93506107c2818560208601610a9b565b6107cb81610b8d565b840191505092915050565b60006060830160008301516107ee60008601826106d1565b50602083015184820360208601526108068282610764565b915050604083015161081b6040860182610826565b508091505092915050565b61082f81610a82565b82525050565b61083e81610a82565b82525050565b6000602082019050818103600083015261085e81846106ef565b905092915050565b60006020820190508181036000830152610880818461079d565b905092915050565b600060408201905081810360008301526108a2818561079d565b90506108b160208301846106e0565b9392505050565b600060408201905081810360008301526108d2818561079d565b90506108e16020830184610835565b9392505050565b60006020820190506108fd6000830184610835565b92915050565b60006040820190506109186000830185610835565b818103602083015261092a818461079d565b90509392505050565b6000604051905081810181811067ffffffffffffffff8211171561095a57610959610b5e565b5b8060405250919050565b600067ffffffffffffffff82111561097f5761097e610b5e565b5b601f19601f8301169050602081019050919050565b6000819050602082019050919050565b600081519050919050565b600081519050919050565b6000602082019050919050565b600082825260208201905092915050565b600082825260208201905092915050565b600082825260208201905092915050565b6000610a0582610a82565b9150610a1083610a82565b9250827fffffffffffffffffffffffffffffffffffffffffffffffffffffffffffffffff03821115610a4557610a44610b00565b5b828201905092915050565b6000610a5b82610a62565b9050919050565b600073ffffffffffffffffffffffffffffffffffffffff82169050919050565b6000819050919050565b82818337600083830152505050565b60005b83811015610ab9578082015181840152602081019050610a9e565b83811115610ac8576000848401525b50505050565b60006002820490506001821680610ae657607f821691505b60208210811415610afa57610af9610b2f565b5b50919050565b7f4e487b7100000000000000000000000000000000000000000000000000000000600052601160045260246000fd5b7f4e487b7100000000000000000000000000000000000000000000000000000000600052602260045260246000fd5b7f4e487b7100000000000000000000000000000000000000000000000000000000600052604160045260246000fd5b6000601f19601f830116905091905056fe5765206861766520256420746f74616c206172742072657175657374732120f09f8ea825732072657175657374656420746f207669657720736f6d65206172742120f09f8ea8a26469706673582212208ee816ec37e606b54bc6111d6ec04b5e55442581e14ecbc89f5c8356b999c70a64736f6c634300080000335468697320636f6e747261637420697320646f706520616e642068617320736f6d65206e6575726f6e7321",
  "linkReferences": {},
  "deployedLinkReferences": {}
}