{
  "_format": "hh-sol-artifact-1",
  "contractName": "WavePortal",
  "sourceName": "contracts/WavePortal.sol",
  "abi": [
    {
      "inputs": [],
      "stateMutability": "payable",
      "type": "constructor"
    },
    {
      "anonymous": false,
      "inputs": [
        {
          "indexed": true,
          "internalType": "address",
          "name": "from",
          "type": "address"
        },
        {
          "indexed": false,
          "internalType": "uint256",
          "name": "timestamp",
          "type": "uint256"
        },
        {
          "indexed": false,
          "internalType": "string",
          "name": "message",
          "type": "string"
        }
      ],
      "name": "NewWave",
      "type": "event"
    },
    {
      "inputs": [
        {
          "internalType": "string",
          "name": "_message",
          "type": "string"
        }
      ],
      "name": "askForArt",
      "outputs": [],
      "stateMutability": "nonpayable",
      "type": "function"
    },
    {
      "inputs": [],
      "name": "getArtRequests",
      "outputs": [
        {
          "components": [
            {
              "internalType": "address",
              "name": "waver",
              "type": "address"
            },
            {
              "internalType": "string",
              "name": "message",
              "type": "string"
            },
            {
              "internalType": "uint256",
              "name": "timestamp",
              "type": "uint256"
            }
          ],
          "internalType": "struct WavePortal.Wave[]",
          "name": "",
          "type": "tuple[]"
        }
      ],
      "stateMutability": "view",
      "type": "function"
    },
    {
      "inputs": [],
      "name": "getTotalArtRequests",
      "outputs": [
        {
          "internalType": "uint256",
          "name": "",
          "type": "uint256"
        }
      ],
      "stateMutability": "view",
      "type": "function"
    },
    {
      "inputs": [
        {
          "internalType": "address",
          "name": "",
          "type": "address"
        }
      ],
      "name": "lastWavedAt",
      "outputs": [
        {
          "internalType": "uint256",
          "name": "",
          "type": "uint256"
        }
      ],
      "stateMutability": "view",
      "type": "function"
    }
  ],
  "bytecode": "0x6080604052620000336040518060600160405280602b81526020016200132c602b91396200003960201b620006511760201c565b620001cd565b620000d98160405160240162000050919062000146565b6040516020818303038152906040527f41304fac000000000000000000000000000000000000000000000000000000007bffffffffffffffffffffffffffffffffffffffffffffffffffffffff19166020820180517bffffffffffffffffffffffffffffffffffffffffffffffffffffffff8381831617835250505050620000dc60201b60201c565b50565b60008151905060006a636f6e736f6c652e6c6f679050602083016000808483855afa5050505050565b600062000112826200016a565b6200011e818562000175565b93506200013081856020860162000186565b6200013b81620001bc565b840191505092915050565b6000602082019050818103600083015262000162818462000105565b905092915050565b600081519050919050565b600082825260208201905092915050565b60005b83811015620001a657808201518184015260208101905062000189565b83811115620001b6576000848401525b50505050565b6000601f19601f8301169050919050565b61114f80620001dd6000396000f3fe608060405234801561001057600080fd5b506004361061004c5760003560e01c80630b658b7114610051578063752c195c1461006f578063a42a46631461008d578063e47e712c146100bd575b600080fd5b6100596100d9565b6040516100669190610d9b565b60405180910390f35b610077610107565b6040516100849190610c97565b60405180910390f35b6100a760048036038101906100a2919061096b565b610258565b6040516100b49190610d9b565b60405180910390f35b6100d760048036038101906100d29190610994565b610270565b005b60006100ff6040518060600160405280602381526020016110d4602391396000546106ea565b600054905090565b60606002805480602002602001604051908101604052809291908181526020016000905b8282101561024f57838290600052602060002090600302016040518060600160405290816000820160009054906101000a900473ffffffffffffffffffffffffffffffffffffffff1673ffffffffffffffffffffffffffffffffffffffff1673ffffffffffffffffffffffffffffffffffffffff1681526020016001820180546101b490610f8c565b80601f01602080910402602001604051908101604052809291908181526020018280546101e090610f8c565b801561022d5780601f106102025761010080835404028352916020019161022d565b820191906000526020600020905b81548152906001019060200180831161021057829003601f168201915b505050505081526020016002820154815250508152602001906001019061012b565b50505050905090565b60036020528060005260406000206000915090505481565b42610384600360003373ffffffffffffffffffffffffffffffffffffffff1673ffffffffffffffffffffffffffffffffffffffff168152602001908152602001600020546102be9190610eb8565b106102fe576040517f08c379a00000000000000000000000000000000000000000000000000000000081526004016102f590610d7b565b60405180910390fd5b42600360003373ffffffffffffffffffffffffffffffffffffffff1673ffffffffffffffffffffffffffffffffffffffff1681526020019081526020016000208190555060016000808282546103549190610eb8565b9250508190555061037d6040518060600160405280602381526020016110f76023913933610786565b600260405180606001604052803373ffffffffffffffffffffffffffffffffffffffff16815260200183815260200142815250908060018154018082558091505060019003906000526020600020906003020160009091909190915060008201518160000160006101000a81548173ffffffffffffffffffffffffffffffffffffffff021916908373ffffffffffffffffffffffffffffffffffffffff160217905550602082015181600101908051906020019061043c92919061084b565b5060408201518160020155505060006064600154424461045c9190610eb8565b6104669190610eb8565b6104709190610fbe565b90506104b16040518060400160405280601681526020017f52616e646f6d20232067656e6572617465643a20257300000000000000000000815250826106ea565b8060018190555060328110156105fd576105006040518060400160405280600781526020017f257320776f6e210000000000000000000000000000000000000000000000000081525033610786565b6000655af3107a400090504781111561054e576040517f08c379a000000000000000000000000000000000000000000000000000000000815260040161054590610d3b565b60405180910390fd5b60003373ffffffffffffffffffffffffffffffffffffffff168260405161057490610c82565b60006040518083038185875af1925050503d80600081146105b1576040519150601f19603f3d011682016040523d82523d6000602084013e6105b6565b606091505b50509050806105fa576040517f08c379a00000000000000000000000000000000000000000000000000000000081526004016105f190610d5b565b60405180910390fd5b50505b3373ffffffffffffffffffffffffffffffffffffffff167f5f7e16dc676677766a70e9c5628aa6c54ddb8b6e5188e2ae1e1f17f1ffbea7164284604051610645929190610db6565b60405180910390a25050565b6106e7816040516024016106659190610cb9565b6040516020818303038152906040527f41304fac000000000000000000000000000000000000000000000000000000007bffffffffffffffffffffffffffffffffffffffffffffffffffffffff19166020820180517bffffffffffffffffffffffffffffffffffffffffffffffffffffffff8381831617835250505050610822565b50565b6107828282604051602401610700929190610d0b565b6040516020818303038152906040527f9710a9d0000000000000000000000000000000000000000000000000000000007bffffffffffffffffffffffffffffffffffffffffffffffffffffffff19166020820180517bffffffffffffffffffffffffffffffffffffffffffffffffffffffff8381831617835250505050610822565b5050565b61081e828260405160240161079c929190610cdb565b6040516020818303038152906040527f319af333000000000000000000000000000000000000000000000000000000007bffffffffffffffffffffffffffffffffffffffffffffffffffffffff19166020820180517bffffffffffffffffffffffffffffffffffffffffffffffffffffffff8381831617835250505050610822565b5050565b60008151905060006a636f6e736f6c652e6c6f679050602083016000808483855afa5050505050565b82805461085790610f8c565b90600052602060002090601f01602090048101928261087957600085556108c0565b82601f1061089257805160ff19168380011785556108c0565b828001600101855582156108c0579182015b828111156108bf5782518255916020019190600101906108a4565b5b5090506108cd91906108d1565b5090565b5b808211156108ea5760008160009055506001016108d2565b5090565b60006109016108fc84610e17565b610de6565b90508281526020810184848401111561091957600080fd5b610924848285610f4a565b509392505050565b60008135905061093b816110bc565b92915050565b600082601f83011261095257600080fd5b81356109628482602086016108ee565b91505092915050565b60006020828403121561097d57600080fd5b600061098b8482850161092c565b91505092915050565b6000602082840312156109a657600080fd5b600082013567ffffffffffffffff8111156109c057600080fd5b6109cc84828501610941565b91505092915050565b60006109e18383610c14565b905092915050565b6109f281610f0e565b82525050565b610a0181610f0e565b82525050565b6000610a1282610e57565b610a1c8185610e7a565b935083602082028501610a2e85610e47565b8060005b85811015610a6a5784840389528151610a4b85826109d5565b9450610a5683610e6d565b925060208a01995050600181019050610a32565b50829750879550505050505092915050565b6000610a8782610e62565b610a918185610e96565b9350610aa1818560208601610f59565b610aaa816110ab565b840191505092915050565b6000610ac082610e62565b610aca8185610ea7565b9350610ada818560208601610f59565b610ae3816110ab565b840191505092915050565b6000610afb603483610ea7565b91507f547279696e6720746f207769746864726177206d6f7265206d6f6e657920746860008301527f616e2074686520636f6e7472616374206861732e0000000000000000000000006020830152604082019050919050565b6000610b61602783610ea7565b91507f4661696c656420746f207769746864726177206d6f6e65792066726f6d20636f60008301527f6e74726163742e000000000000000000000000000000000000000000000000006020830152604082019050919050565b6000610bc7600083610e8b565b9150600082019050919050565b6000610be1600883610ea7565b91507f576169742031356d0000000000000000000000000000000000000000000000006000830152602082019050919050565b6000606083016000830151610c2c60008601826109e9565b5060208301518482036020860152610c448282610a7c565b9150506040830151610c596040860182610c64565b508091505092915050565b610c6d81610f40565b82525050565b610c7c81610f40565b82525050565b6000610c8d82610bba565b9150819050919050565b60006020820190508181036000830152610cb18184610a07565b905092915050565b60006020820190508181036000830152610cd38184610ab5565b905092915050565b60006040820190508181036000830152610cf58185610ab5565b9050610d0460208301846109f8565b9392505050565b60006040820190508181036000830152610d258185610ab5565b9050610d346020830184610c73565b9392505050565b60006020820190508181036000830152610d5481610aee565b9050919050565b60006020820190508181036000830152610d7481610b54565b9050919050565b60006020820190508181036000830152610d9481610bd4565b9050919050565b6000602082019050610db06000830184610c73565b92915050565b6000604082019050610dcb6000830185610c73565b8181036020830152610ddd8184610ab5565b90509392505050565b6000604051905081810181811067ffffffffffffffff82111715610e0d57610e0c61107c565b5b8060405250919050565b600067ffffffffffffffff821115610e3257610e3161107c565b5b601f19601f8301169050602081019050919050565b6000819050602082019050919050565b600081519050919050565b600081519050919050565b6000602082019050919050565b600082825260208201905092915050565b600081905092915050565b600082825260208201905092915050565b600082825260208201905092915050565b6000610ec382610f40565b9150610ece83610f40565b9250827fffffffffffffffffffffffffffffffffffffffffffffffffffffffffffffffff03821115610f0357610f02610fef565b5b828201905092915050565b6000610f1982610f20565b9050919050565b600073ffffffffffffffffffffffffffffffffffffffff82169050919050565b6000819050919050565b82818337600083830152505050565b60005b83811015610f77578082015181840152602081019050610f5c565b83811115610f86576000848401525b50505050565b60006002820490506001821680610fa457607f821691505b60208210811415610fb857610fb761104d565b5b50919050565b6000610fc982610f40565b9150610fd483610f40565b925082610fe457610fe361101e565b5b828206905092915050565b7f4e487b7100000000000000000000000000000000000000000000000000000000600052601160045260246000fd5b7f4e487b7100000000000000000000000000000000000000000000000000000000600052601260045260246000fd5b7f4e487b7100000000000000000000000000000000000000000000000000000000600052602260045260246000fd5b7f4e487b7100000000000000000000000000000000000000000000000000000000600052604160045260246000fd5b6000601f19601f8301169050919050565b6110c581610f0e565b81146110d057600080fd5b5056fe5765206861766520256420746f74616c206172742072657175657374732120f09f8ea825732072657175657374656420746f207669657720736f6d65206172742120f09f8ea8a2646970667358221220225e3762246b3cfa129ca8a60079155b4a0dc12e3cda4de34c291a16ae86838d64736f6c634300080000335468697320636f6e747261637420697320646f706520616e642068617320736f6d65206e6575726f6e7321",
  "linkReferences": {},
  "deployedLinkReferences": {}
}