{
  "_format": "hh-sol-artifact-1",
  "contractName": "WavePortal",
  "sourceName": "contracts/WavePortal.sol",
  "abi": [
    {
      "inputs": [],
      "stateMutability": "nonpayable",
      "type": "constructor"
    },
    {
      "inputs": [],
      "name": "askForArt",
      "outputs": [],
      "stateMutability": "nonpayable",
      "type": "function"
    },
    {
      "inputs": [],
      "name": "getTotalArtRequests",
      "outputs": [
        {
          "internalType": "uint256",
          "name": "",
          "type": "uint256"
        }
      ],
      "stateMutability": "view",
      "type": "function"
    }
  ],
  "bytecode": "0x608060405234801561001057600080fd5b5061003c6040518060600160405280602b8152602001610726602b913961004160201b6100eb1760201c565b6101c4565b6100dd816040516024016100559190610142565b6040516020818303038152906040527f41304fac000000000000000000000000000000000000000000000000000000007bffffffffffffffffffffffffffffffffffffffffffffffffffffffff19166020820180517bffffffffffffffffffffffffffffffffffffffffffffffffffffffff83818316178352505050506100e060201b60201c565b50565b60008151905060006a636f6e736f6c652e6c6f679050602083016000808483855afa5050505050565b600061011482610164565b61011e818561016f565b935061012e818560208601610180565b610137816101b3565b840191505092915050565b6000602082019050818103600083015261015c8184610109565b905092915050565b600081519050919050565b600082825260208201905092915050565b60005b8381101561019e578082015181840152602081019050610183565b838111156101ad576000848401525b50505050565b6000601f19601f8301169050919050565b610553806101d36000396000f3fe608060405234801561001057600080fd5b50600436106100365760003560e01c80630b658b711461003b578063406d38bb14610059575b600080fd5b610043610063565b60405161005091906103be565b60405180910390f35b610061610091565b005b60006100896040518060600160405280602381526020016104fb60239139600054610184565b600054905090565b60016000808282546100a391906103f5565b925050819055506100e96040518060400160405280601b81526020017f25732072657175657374656420736f6d65206172742120f09f8ea8000000000081525033610220565b565b610181816040516024016100ff919061033c565b6040516020818303038152906040527f41304fac000000000000000000000000000000000000000000000000000000007bffffffffffffffffffffffffffffffffffffffffffffffffffffffff19166020820180517bffffffffffffffffffffffffffffffffffffffffffffffffffffffff83818316178352505050506102bc565b50565b61021c828260405160240161019a92919061038e565b6040516020818303038152906040527f9710a9d0000000000000000000000000000000000000000000000000000000007bffffffffffffffffffffffffffffffffffffffffffffffffffffffff19166020820180517bffffffffffffffffffffffffffffffffffffffffffffffffffffffff83818316178352505050506102bc565b5050565b6102b8828260405160240161023692919061035e565b6040516020818303038152906040527f319af333000000000000000000000000000000000000000000000000000000007bffffffffffffffffffffffffffffffffffffffffffffffffffffffff19166020820180517bffffffffffffffffffffffffffffffffffffffffffffffffffffffff83818316178352505050506102bc565b5050565b60008151905060006a636f6e736f6c652e6c6f679050602083016000808483855afa5050505050565b6102ee8161044b565b82525050565b60006102ff826103d9565b61030981856103e4565b9350610319818560208601610487565b610322816104e9565b840191505092915050565b6103368161047d565b82525050565b6000602082019050818103600083015261035681846102f4565b905092915050565b6000604082019050818103600083015261037881856102f4565b905061038760208301846102e5565b9392505050565b600060408201905081810360008301526103a881856102f4565b90506103b7602083018461032d565b9392505050565b60006020820190506103d3600083018461032d565b92915050565b600081519050919050565b600082825260208201905092915050565b60006104008261047d565b915061040b8361047d565b9250827fffffffffffffffffffffffffffffffffffffffffffffffffffffffffffffffff038211156104405761043f6104ba565b5b828201905092915050565b60006104568261045d565b9050919050565b600073ffffffffffffffffffffffffffffffffffffffff82169050919050565b6000819050919050565b60005b838110156104a557808201518184015260208101905061048a565b838111156104b4576000848401525b50505050565b7f4e487b7100000000000000000000000000000000000000000000000000000000600052601160045260246000fd5b6000601f19601f830116905091905056fe5765206861766520256420746f74616c206172742072657175657374732120f09f8ea8a264697066735822122091c993dcb34f0b619122c22b24da70275f6ae3c3c12cee8dc59f5afdba7212ca64736f6c634300080000335468697320636f6e747261637420697320646f706520616e642068617320736f6d65206e6575726f6e7321",
  "linkReferences": {},
  "deployedLinkReferences": {}
}